:100000000C9434000C9451000C9451000C94510049
:100010000C9451000C9451000C9451000C9451001C
:100020000C9451000C9451000C9451000C9451000C
:100030000C9451000C9451000C9475000C945100D8
:100040000C9451000C9451000C9451000C945100EC
:100050000C9451000C9451000C9451000C945100DC
:100060000C9451000C94510011241FBECFEFD8E026
:10007000DEBFCDBF11E0A0E0B1E0E4E0F2E002C0FD
:1000800005900D92AA30B107D9F721E0AAE0B1E0BE
:1000900001C01D92AC30B207E1F70E94D0000C9471
:1000A00000010C94000093B19095982391F0482F93
:1000B00050E023B130E02095309524233523232BC5
:1000C000C1F7E3ECF9E03197F1F700C00000892FA8
:1000D000089580E008958A3038F4E82FF0E0E05089
:1000E000FF4F808180958BB908951F920F920FB6B4
:1000F0000F9211242F933F934F935F936F937F93AE
:100100008F939F93AF93BF93CF93EF93FF938FEF13
:100110008BB980910A01811116C0C1E0C8B98091E4
:100120000B019DEC899F912D11249695969596959E
:10013000990F292F220F220F920F891B0E946B000B
:10014000C0930A011BC082E088B980910B019DEC2D
:10015000899F812D1124869586958695899F912D5D
:100160001124969596959695990F292F220F220F77
:10017000920F891B0E946B0010920A01FF91EF9170
:10018000CF91BF91AF919F918F917F916F915F912F
:100190004F913F912F910F900FBE0F901F90189588
:1001A0008FEF8AB993E097B914B886E085B982E0F9
:1001B00084BD95BD9FE097BD80936E007894C3E6A3
:1001C00082E00E945300882359F080910B0183360E
:1001D00019F410920B01F4CF8F5F80930B01F0CFD5
:1001E00084E00E945300882359F380910B01811110
:1001F00003C0C0930B01E4CF815080930B01E0CF8B
:04020000F894FFCFA0
:0A0204003F065B4F666D7D277F6F9C
:00000001FF
